{
  "_format": "hh-sol-artifact-1",
  "contractName": "BoxV1",
  "sourceName": "contracts/BoxV1.sol",
  "abi": [
    {
      "inputs": [
        {
          "internalType": "uint256",
          "name": "_length",
          "type": "uint256"
        },
        {
          "internalType": "uint256",
          "name": "_width",
          "type": "uint256"
        }
      ],
      "name": "initialize",
      "outputs": [],
      "stateMutability": "nonpayable",
      "type": "function"
    },
    {
      "inputs": [],
      "name": "length",
      "outputs": [
        {
          "internalType": "uint256",
          "name": "",
          "type": "uint256"
        }
      ],
      "stateMutability": "view",
      "type": "function"
    },
    {
      "inputs": [],
      "name": "width",
      "outputs": [
        {
          "internalType": "uint256",
          "name": "",
          "type": "uint256"
        }
      ],
      "stateMutability": "view",
      "type": "function"
    }
  ],
  "bytecode": "0x608060405234801561001057600080fd5b50610308806100206000396000f3fe608060405234801561001057600080fd5b50600436106100415760003560e01c80631f7b6d32146100465780639ededf7714610064578063e4a3011614610082575b600080fd5b61004e61009e565b60405161005b9190610236565b60405180910390f35b61006c6100a4565b6040516100799190610236565b60405180910390f35b61009c600480360381019061009791906101a8565b6100aa565b005b60015481565b60025481565b600060019054906101000a900460ff16806100d0575060008054906101000a900460ff16155b61010f576040517f08c379a000000000000000000000000000000000000000000000000000000000815260040161010690610216565b60405180910390fd5b60008060019054906101000a900460ff16159050801561015f576001600060016101000a81548160ff02191690831515021790555060016000806101000a81548160ff0219169083151502179055505b8260018190555081600281905550801561018e5760008060016101000a81548160ff0219169083151502179055505b505050565b6000813590506101a2816102bb565b92915050565b600080604083850312156101bb57600080fd5b60006101c985828601610193565b92505060206101da85828601610193565b9150509250929050565b60006101f1602e83610251565b91506101fc8261026c565b604082019050919050565b61021081610262565b82525050565b6000602082019050818103600083015261022f816101e4565b9050919050565b600060208201905061024b6000830184610207565b92915050565b600082825260208201905092915050565b6000819050919050565b7f496e697469616c697a61626c653a20636f6e747261637420697320616c72656160008201527f647920696e697469616c697a6564000000000000000000000000000000000000602082015250565b6102c481610262565b81146102cf57600080fd5b5056fea26469706673582212205725cc7fe92200bfafd731d69a5c856d0a7b0e4db93413c7ee108175fc76fb2a64736f6c63430008040033",
  "linkReferences": {},
  "deployedLinkReferences": {}
}