{
  "_format": "hh-sol-artifact-1",
  "contractName": "BoxV2",
  "sourceName": "contracts/BoxV2.sol",
  "abi": [
    {
      "inputs": [],
      "name": "area",
      "outputs": [
        {
          "internalType": "uint256",
          "name": "",
          "type": "uint256"
        }
      ],
      "stateMutability": "view",
      "type": "function"
    },
    {
      "inputs": [
        {
          "internalType": "uint256",
          "name": "_length",
          "type": "uint256"
        },
        {
          "internalType": "uint256",
          "name": "_width",
          "type": "uint256"
        }
      ],
      "name": "initialize",
      "outputs": [],
      "stateMutability": "nonpayable",
      "type": "function"
    },
    {
      "inputs": [],
      "name": "length",
      "outputs": [
        {
          "internalType": "uint256",
          "name": "",
          "type": "uint256"
        }
      ],
      "stateMutability": "view",
      "type": "function"
    },
    {
      "inputs": [],
      "name": "width",
      "outputs": [
        {
          "internalType": "uint256",
          "name": "",
          "type": "uint256"
        }
      ],
      "stateMutability": "view",
      "type": "function"
    }
  ],
  "bytecode": "0x608060405234801561001057600080fd5b506103d1806100206000396000f3fe608060405234801561001057600080fd5b506004361061004c5760003560e01c80631f7b6d32146100515780634d41892f1461006f5780639ededf771461008d578063e4a30116146100ab575b600080fd5b6100596100c7565b6040516100669190610276565b60405180910390f35b6100776100cd565b6040516100849190610276565b60405180910390f35b6100956100e4565b6040516100a29190610276565b60405180910390f35b6100c560048036038101906100c091906101e8565b6100ea565b005b60015481565b60006002546001546100df91906102a2565b905090565b60025481565b600060019054906101000a900460ff1680610110575060008054906101000a900460ff16155b61014f576040517f08c379a000000000000000000000000000000000000000000000000000000000815260040161014690610256565b60405180910390fd5b60008060019054906101000a900460ff16159050801561019f576001600060016101000a81548160ff02191690831515021790555060016000806101000a81548160ff0219169083151502179055505b826001819055508160028190555080156101ce5760008060016101000a81548160ff0219169083151502179055505b505050565b6000813590506101e281610384565b92915050565b600080604083850312156101fb57600080fd5b6000610209858286016101d3565b925050602061021a858286016101d3565b9150509250929050565b6000610231602e83610291565b915061023c82610335565b604082019050919050565b610250816102fc565b82525050565b6000602082019050818103600083015261026f81610224565b9050919050565b600060208201905061028b6000830184610247565b92915050565b600082825260208201905092915050565b60006102ad826102fc565b91506102b8836102fc565b9250817fffffffffffffffffffffffffffffffffffffffffffffffffffffffffffffffff04831182151516156102f1576102f0610306565b5b828202905092915050565b6000819050919050565b7f4e487b7100000000000000000000000000000000000000000000000000000000600052601160045260246000fd5b7f496e697469616c697a61626c653a20636f6e747261637420697320616c72656160008201527f647920696e697469616c697a6564000000000000000000000000000000000000602082015250565b61038d816102fc565b811461039857600080fd5b5056fea264697066735822122058e534b00fe112c209c27e0aad4f078aeb846765a24cc2900ae0f479508ea5b664736f6c63430008040033",
  "linkReferences": {},
  "deployedLinkReferences": {}
}